{
  "_format": "hh-sol-artifact-1",
  "contractName": "MintAccessNft",
  "sourceName": "contracts/MintNFT.sol",
  "abi": [
    {
      "inputs": [],
      "stateMutability": "nonpayable",
      "type": "constructor"
    },
    {
      "anonymous": false,
      "inputs": [
        {
          "indexed": true,
          "internalType": "address",
          "name": "owner",
          "type": "address"
        },
        {
          "indexed": true,
          "internalType": "address",
          "name": "approved",
          "type": "address"
        },
        {
          "indexed": true,
          "internalType": "uint256",
          "name": "tokenId",
          "type": "uint256"
        }
      ],
      "name": "Approval",
      "type": "event"
    },
    {
      "anonymous": false,
      "inputs": [
        {
          "indexed": true,
          "internalType": "address",
          "name": "owner",
          "type": "address"
        },
        {
          "indexed": true,
          "internalType": "address",
          "name": "operator",
          "type": "address"
        },
        {
          "indexed": false,
          "internalType": "bool",
          "name": "approved",
          "type": "bool"
        }
      ],
      "name": "ApprovalForAll",
      "type": "event"
    },
    {
      "anonymous": false,
      "inputs": [
        {
          "indexed": false,
          "internalType": "string",
          "name": "_message",
          "type": "string"
        }
      ],
      "name": "NFTMinted",
      "type": "event"
    },
    {
      "anonymous": false,
      "inputs": [
        {
          "indexed": true,
          "internalType": "address",
          "name": "from",
          "type": "address"
        },
        {
          "indexed": true,
          "internalType": "address",
          "name": "to",
          "type": "address"
        },
        {
          "indexed": true,
          "internalType": "uint256",
          "name": "tokenId",
          "type": "uint256"
        }
      ],
      "name": "Transfer",
      "type": "event"
    },
    {
      "inputs": [
        {
          "internalType": "address",
          "name": "to",
          "type": "address"
        },
        {
          "internalType": "uint256",
          "name": "tokenId",
          "type": "uint256"
        }
      ],
      "name": "approve",
      "outputs": [],
      "stateMutability": "nonpayable",
      "type": "function"
    },
    {
      "inputs": [
        {
          "internalType": "address",
          "name": "owner",
          "type": "address"
        }
      ],
      "name": "balanceOf",
      "outputs": [
        {
          "internalType": "uint256",
          "name": "",
          "type": "uint256"
        }
      ],
      "stateMutability": "view",
      "type": "function"
    },
    {
      "inputs": [
        {
          "internalType": "uint256",
          "name": "tokenId",
          "type": "uint256"
        }
      ],
      "name": "getApproved",
      "outputs": [
        {
          "internalType": "address",
          "name": "",
          "type": "address"
        }
      ],
      "stateMutability": "view",
      "type": "function"
    },
    {
      "inputs": [],
      "name": "giveAccess",
      "outputs": [
        {
          "internalType": "uint256",
          "name": "",
          "type": "uint256"
        }
      ],
      "stateMutability": "nonpayable",
      "type": "function"
    },
    {
      "inputs": [
        {
          "internalType": "address",
          "name": "owner",
          "type": "address"
        },
        {
          "internalType": "address",
          "name": "operator",
          "type": "address"
        }
      ],
      "name": "isApprovedForAll",
      "outputs": [
        {
          "internalType": "bool",
          "name": "",
          "type": "bool"
        }
      ],
      "stateMutability": "view",
      "type": "function"
    },
    {
      "inputs": [],
      "name": "name",
      "outputs": [
        {
          "internalType": "string",
          "name": "",
          "type": "string"
        }
      ],
      "stateMutability": "view",
      "type": "function"
    },
    {
      "inputs": [
        {
          "internalType": "uint256",
          "name": "tokenId",
          "type": "uint256"
        }
      ],
      "name": "ownerOf",
      "outputs": [
        {
          "internalType": "address",
          "name": "",
          "type": "address"
        }
      ],
      "stateMutability": "view",
      "type": "function"
    },
    {
      "inputs": [
        {
          "internalType": "address",
          "name": "from",
          "type": "address"
        },
        {
          "internalType": "address",
          "name": "to",
          "type": "address"
        },
        {
          "internalType": "uint256",
          "name": "tokenId",
          "type": "uint256"
        }
      ],
      "name": "safeTransferFrom",
      "outputs": [],
      "stateMutability": "nonpayable",
      "type": "function"
    },
    {
      "inputs": [
        {
          "internalType": "address",
          "name": "from",
          "type": "address"
        },
        {
          "internalType": "address",
          "name": "to",
          "type": "address"
        },
        {
          "internalType": "uint256",
          "name": "tokenId",
          "type": "uint256"
        },
        {
          "internalType": "bytes",
          "name": "data",
          "type": "bytes"
        }
      ],
      "name": "safeTransferFrom",
      "outputs": [],
      "stateMutability": "nonpayable",
      "type": "function"
    },
    {
      "inputs": [
        {
          "internalType": "address",
          "name": "operator",
          "type": "address"
        },
        {
          "internalType": "bool",
          "name": "approved",
          "type": "bool"
        }
      ],
      "name": "setApprovalForAll",
      "outputs": [],
      "stateMutability": "nonpayable",
      "type": "function"
    },
    {
      "inputs": [
        {
          "internalType": "bytes4",
          "name": "interfaceId",
          "type": "bytes4"
        }
      ],
      "name": "supportsInterface",
      "outputs": [
        {
          "internalType": "bool",
          "name": "",
          "type": "bool"
        }
      ],
      "stateMutability": "view",
      "type": "function"
    },
    {
      "inputs": [],
      "name": "symbol",
      "outputs": [
        {
          "internalType": "string",
          "name": "",
          "type": "string"
        }
      ],
      "stateMutability": "view",
      "type": "function"
    },
    {
      "inputs": [
        {
          "internalType": "uint256",
          "name": "tokenId",
          "type": "uint256"
        }
      ],
      "name": "tokenURI",
      "outputs": [
        {
          "internalType": "string",
          "name": "",
          "type": "string"
        }
      ],
      "stateMutability": "view",
      "type": "function"
    },
    {
      "inputs": [
        {
          "internalType": "address",
          "name": "from",
          "type": "address"
        },
        {
          "internalType": "address",
          "name": "to",
          "type": "address"
        },
        {
          "internalType": "uint256",
          "name": "tokenId",
          "type": "uint256"
        }
      ],
      "name": "transferFrom",
      "outputs": [],
      "stateMutability": "nonpayable",
      "type": "function"
    }
  ],
  "bytecode": "0x60806040523480156200001157600080fd5b506040518060400160405280600b81526020017f416363657373546f6b656e0000000000000000000000000000000000000000008152506040518060400160405280600381526020017f4e4654000000000000000000000000000000000000000000000000000000000081525081600090816200008f919062000324565b508060019081620000a1919062000324565b5050506200040b565b600081519050919050565b7f4e487b7100000000000000000000000000000000000000000000000000000000600052604160045260246000fd5b7f4e487b7100000000000000000000000000000000000000000000000000000000600052602260045260246000fd5b600060028204905060018216806200012c57607f821691505b602082108103620001425762000141620000e4565b5b50919050565b60008190508160005260206000209050919050565b60006020601f8301049050919050565b600082821b905092915050565b600060088302620001ac7fffffffffffffffffffffffffffffffffffffffffffffffffffffffffffffffff826200016d565b620001b886836200016d565b95508019841693508086168417925050509392505050565b6000819050919050565b6000819050919050565b600062000205620001ff620001f984620001d0565b620001da565b620001d0565b9050919050565b6000819050919050565b6200022183620001e4565b6200023962000230826200020c565b8484546200017a565b825550505050565b600090565b6200025062000241565b6200025d81848462000216565b505050565b5b8181101562000285576200027960008262000246565b60018101905062000263565b5050565b601f821115620002d4576200029e8162000148565b620002a9846200015d565b81016020851015620002b9578190505b620002d1620002c8856200015d565b83018262000262565b50505b505050565b600082821c905092915050565b6000620002f960001984600802620002d9565b1980831691505092915050565b6000620003148383620002e6565b9150826002028217905092915050565b6200032f82620000aa565b67ffffffffffffffff8111156200034b576200034a620000b5565b5b62000357825462000113565b6200036482828562000289565b600060209050601f8311600181146200039c576000841562000387578287015190505b62000393858262000306565b86555062000403565b601f198416620003ac8662000148565b60005b82811015620003d657848901518255600182019150602085019450602081019050620003af565b86831015620003f65784890151620003f2601f891682620002e6565b8355505b6001600288020188555050505b505050505050565b61263e806200041b6000396000f3fe608060405234801561001057600080fd5b50600436106100ea5760003560e01c80636352211e1161008c578063a22cb46511610066578063a22cb4651461025d578063b88d4fde14610279578063c87b56dd14610295578063e985e9c5146102c5576100ea565b80636352211e146101df57806370a082311461020f57806395d89b411461023f576100ea565b8063095ea7b3116100c8578063095ea7b31461016d578063163b4bde1461018957806323b872dd146101a757806342842e0e146101c3576100ea565b806301ffc9a7146100ef57806306fdde031461011f578063081812fc1461013d575b600080fd5b6101096004803603810190610104919061175e565b6102f5565b60405161011691906117a6565b60405180910390f35b6101276103d7565b6040516101349190611851565b60405180910390f35b610157600480360381019061015291906118a9565b610469565b6040516101649190611917565b60405180910390f35b6101876004803603810190610182919061195e565b6104af565b005b6101916105c6565b60405161019e91906119ad565b60405180910390f35b6101c160048036038101906101bc91906119c8565b610625565b005b6101dd60048036038101906101d891906119c8565b610685565b005b6101f960048036038101906101f491906118a9565b6106a5565b6040516102069190611917565b60405180910390f35b61022960048036038101906102249190611a1b565b610756565b60405161023691906119ad565b60405180910390f35b61024761080d565b6040516102549190611851565b60405180910390f35b61027760048036038101906102729190611a74565b61089f565b005b610293600480360381019061028e9190611be9565b6108b5565b005b6102af60048036038101906102aa91906118a9565b610917565b6040516102bc9190611851565b60405180910390f35b6102df60048036038101906102da9190611c6c565b610a29565b6040516102ec91906117a6565b60405180910390f35b60007f80ac58cd000000000000000000000000000000000000000000000000000000007bffffffffffffffffffffffffffffffffffffffffffffffffffffffff1916827bffffffffffffffffffffffffffffffffffffffffffffffffffffffff191614806103c057507f5b5e139f000000000000000000000000000000000000000000000000000000007bffffffffffffffffffffffffffffffffffffffffffffffffffffffff1916827bffffffffffffffffffffffffffffffffffffffffffffffffffffffff1916145b806103d057506103cf82610abd565b5b9050919050565b6060600080546103e690611cdb565b80601f016020809104026020016040519081016040528092919081815260200182805461041290611cdb565b801561045f5780601f106104345761010080835404028352916020019161045f565b820191906000526020600020905b81548152906001019060200180831161044257829003601f168201915b5050505050905090565b600061047482610b27565b6004600083815260200190815260200160002060009054906101000a900473ffffffffffffffffffffffffffffffffffffffff169050919050565b60006104ba826106a5565b90508073ffffffffffffffffffffffffffffffffffffffff168373ffffffffffffffffffffffffffffffffffffffff160361052a576040517f08c379a000000000000000000000000000000000000000000000000000000000815260040161052190611d7e565b60405180910390fd5b8073ffffffffffffffffffffffffffffffffffffffff16610549610b72565b73ffffffffffffffffffffffffffffffffffffffff161480610578575061057781610572610b72565b610a29565b5b6105b7576040517f08c379a00000000000000000000000000000000000000000000000000000000081526004016105ae90611e10565b60405180910390fd5b6105c18383610b7a565b505050565b6000806105d36007610c33565b90506105df3382610c41565b6105e96007610e1a565b7f054d18de7a843b833b11e4dbfa2ba1b119f88faa425dc2a346046b0321a34e3d60405161061690611e7c565b60405180910390a18091505090565b610636610630610b72565b82610e30565b610675576040517f08c379a000000000000000000000000000000000000000000000000000000000815260040161066c90611f0e565b60405180910390fd5b610680838383610ec5565b505050565b6106a0838383604051806020016040528060008152506108b5565b505050565b6000806002600084815260200190815260200160002060009054906101000a900473ffffffffffffffffffffffffffffffffffffffff169050600073ffffffffffffffffffffffffffffffffffffffff168173ffffffffffffffffffffffffffffffffffffffff160361074d576040517f08c379a000000000000000000000000000000000000000000000000000000000815260040161074490611f7a565b60405180910390fd5b80915050919050565b60008073ffffffffffffffffffffffffffffffffffffffff168273ffffffffffffffffffffffffffffffffffffffff16036107c6576040517f08c379a00000000000000000000000000000000000000000000000000000000081526004016107bd9061200c565b60405180910390fd5b600360008373ffffffffffffffffffffffffffffffffffffffff1673ffffffffffffffffffffffffffffffffffffffff168152602001908152602001600020549050919050565b60606001805461081c90611cdb565b80601f016020809104026020016040519081016040528092919081815260200182805461084890611cdb565b80156108955780601f1061086a57610100808354040283529160200191610895565b820191906000526020600020905b81548152906001019060200180831161087857829003601f168201915b5050505050905090565b6108b16108aa610b72565b838361112b565b5050565b6108c66108c0610b72565b83610e30565b610905576040517f08c379a00000000000000000000000000000000000000000000000000000000081526004016108fc90611f0e565b60405180910390fd5b61091184848484611297565b50505050565b606061092282610b27565b600060066000848152602001908152602001600020805461094290611cdb565b80601f016020809104026020016040519081016040528092919081815260200182805461096e90611cdb565b80156109bb5780601f10610990576101008083540402835291602001916109bb565b820191906000526020600020905b81548152906001019060200180831161099e57829003601f168201915b5050505050905060006109cc6112f3565b905060008151036109e1578192505050610a24565b600082511115610a165780826040516020016109fe929190612068565b60405160208183030381529060405292505050610a24565b610a1f8461130a565b925050505b919050565b6000600560008473ffffffffffffffffffffffffffffffffffffffff1673ffffffffffffffffffffffffffffffffffffffff16815260200190815260200160002060008373ffffffffffffffffffffffffffffffffffffffff1673ffffffffffffffffffffffffffffffffffffffff16815260200190815260200160002060009054906101000a900460ff16905092915050565b60007f01ffc9a7000000000000000000000000000000000000000000000000000000007bffffffffffffffffffffffffffffffffffffffffffffffffffffffff1916827bffffffffffffffffffffffffffffffffffffffffffffffffffffffff1916149050919050565b610b3081611372565b610b6f576040517f08c379a0000000000000000000000000000000000000000000000000000000008152600401610b6690611f7a565b60405180910390fd5b50565b600033905090565b816004600083815260200190815260200160002060006101000a81548173ffffffffffffffffffffffffffffffffffffffff021916908373ffffffffffffffffffffffffffffffffffffffff160217905550808273ffffffffffffffffffffffffffffffffffffffff16610bed836106a5565b73ffffffffffffffffffffffffffffffffffffffff167f8c5be1e5ebec7d5bd14f71427d1e84f3dd0314c0f7b2291e5b200ac8c7c3b92560405160405180910390a45050565b600081600001549050919050565b600073ffffffffffffffffffffffffffffffffffffffff168273ffffffffffffffffffffffffffffffffffffffff1603610cb0576040517f08c379a0000000000000000000000000000000000000000000000000000000008152600401610ca7906120d8565b60405180910390fd5b610cb981611372565b15610cf9576040517f08c379a0000000000000000000000000000000000000000000000000000000008152600401610cf090612144565b60405180910390fd5b610d05600083836113de565b6001600360008473ffffffffffffffffffffffffffffffffffffffff1673ffffffffffffffffffffffffffffffffffffffff1681526020019081526020016000206000828254610d559190612193565b92505081905550816002600083815260200190815260200160002060006101000a81548173ffffffffffffffffffffffffffffffffffffffff021916908373ffffffffffffffffffffffffffffffffffffffff160217905550808273ffffffffffffffffffffffffffffffffffffffff16600073ffffffffffffffffffffffffffffffffffffffff167fddf252ad1be2c89b69c2b068fc378daa952ba7f163c4a11628f55a4df523b3ef60405160405180910390a4610e16600083836113e3565b5050565b6001816000016000828254019250508190555050565b600080610e3c836106a5565b90508073ffffffffffffffffffffffffffffffffffffffff168473ffffffffffffffffffffffffffffffffffffffff161480610e7e5750610e7d8185610a29565b5b80610ebc57508373ffffffffffffffffffffffffffffffffffffffff16610ea484610469565b73ffffffffffffffffffffffffffffffffffffffff16145b91505092915050565b8273ffffffffffffffffffffffffffffffffffffffff16610ee5826106a5565b73ffffffffffffffffffffffffffffffffffffffff1614610f3b576040517f08c379a0000000000000000000000000000000000000000000000000000000008152600401610f3290612239565b60405180910390fd5b600073ffffffffffffffffffffffffffffffffffffffff168273ffffffffffffffffffffffffffffffffffffffff1603610faa576040517f08c379a0000000000000000000000000000000000000000000000000000000008152600401610fa1906122cb565b60405180910390fd5b610fb58383836113de565b610fc0600082610b7a565b6001600360008573ffffffffffffffffffffffffffffffffffffffff1673ffffffffffffffffffffffffffffffffffffffff168152602001908152602001600020600082825461101091906122eb565b925050819055506001600360008473ffffffffffffffffffffffffffffffffffffffff1673ffffffffffffffffffffffffffffffffffffffff16815260200190815260200160002060008282546110679190612193565b92505081905550816002600083815260200190815260200160002060006101000a81548173ffffffffffffffffffffffffffffffffffffffff021916908373ffffffffffffffffffffffffffffffffffffffff160217905550808273ffffffffffffffffffffffffffffffffffffffff168473ffffffffffffffffffffffffffffffffffffffff167fddf252ad1be2c89b69c2b068fc378daa952ba7f163c4a11628f55a4df523b3ef60405160405180910390a46111268383836113e3565b505050565b8173ffffffffffffffffffffffffffffffffffffffff168373ffffffffffffffffffffffffffffffffffffffff1603611199576040517f08c379a00000000000000000000000000000000000000000000000000000000081526004016111909061236b565b60405180910390fd5b80600560008573ffffffffffffffffffffffffffffffffffffffff1673ffffffffffffffffffffffffffffffffffffffff16815260200190815260200160002060008473ffffffffffffffffffffffffffffffffffffffff1673ffffffffffffffffffffffffffffffffffffffff16815260200190815260200160002060006101000a81548160ff0219169083151502179055508173ffffffffffffffffffffffffffffffffffffffff168373ffffffffffffffffffffffffffffffffffffffff167f17307eab39ab6107e8899845ad3d59bd9653f200f220920489ca2b5937696c318360405161128a91906117a6565b60405180910390a3505050565b6112a2848484610ec5565b6112ae848484846113e8565b6112ed576040517f08c379a00000000000000000000000000000000000000000000000000000000081526004016112e4906123fd565b60405180910390fd5b50505050565b606060405180602001604052806000815250905090565b606061131582610b27565b600061131f6112f3565b9050600081511161133f576040518060200160405280600081525061136a565b806113498461156f565b60405160200161135a929190612068565b6040516020818303038152906040525b915050919050565b60008073ffffffffffffffffffffffffffffffffffffffff166002600084815260200190815260200160002060009054906101000a900473ffffffffffffffffffffffffffffffffffffffff1673ffffffffffffffffffffffffffffffffffffffff1614159050919050565b505050565b505050565b60006114098473ffffffffffffffffffffffffffffffffffffffff166116cf565b15611562578373ffffffffffffffffffffffffffffffffffffffff1663150b7a02611432610b72565b8786866040518563ffffffff1660e01b81526004016114549493929190612472565b6020604051808303816000875af192505050801561149057506040513d601f19601f8201168201806040525081019061148d91906124d3565b60015b611512573d80600081146114c0576040519150601f19603f3d011682016040523d82523d6000602084013e6114c5565b606091505b50600081510361150a576040517f08c379a0000000000000000000000000000000000000000000000000000000008152600401611501906123fd565b60405180910390fd5b805181602001fd5b63150b7a0260e01b7bffffffffffffffffffffffffffffffffffffffffffffffffffffffff1916817bffffffffffffffffffffffffffffffffffffffffffffffffffffffff191614915050611567565b600190505b949350505050565b6060600082036115b6576040518060400160405280600181526020017f300000000000000000000000000000000000000000000000000000000000000081525090506116ca565b600082905060005b600082146115e85780806115d190612500565b915050600a826115e19190612577565b91506115be565b60008167ffffffffffffffff81111561160457611603611abe565b5b6040519080825280601f01601f1916602001820160405280156116365781602001600182028036833780820191505090505b5090505b600085146116c35760018261164f91906122eb565b9150600a8561165e91906125a8565b603061166a9190612193565b60f81b8183815181106116805761167f6125d9565b5b60200101907effffffffffffffffffffffffffffffffffffffffffffffffffffffffffffff1916908160001a905350600a856116bc9190612577565b945061163a565b8093505050505b919050565b6000808273ffffffffffffffffffffffffffffffffffffffff163b119050919050565b6000604051905090565b600080fd5b600080fd5b60007fffffffff0000000000000000000000000000000000000000000000000000000082169050919050565b61173b81611706565b811461174657600080fd5b50565b60008135905061175881611732565b92915050565b600060208284031215611774576117736116fc565b5b600061178284828501611749565b91505092915050565b60008115159050919050565b6117a08161178b565b82525050565b60006020820190506117bb6000830184611797565b92915050565b600081519050919050565b600082825260208201905092915050565b60005b838110156117fb5780820151818401526020810190506117e0565b60008484015250505050565b6000601f19601f8301169050919050565b6000611823826117c1565b61182d81856117cc565b935061183d8185602086016117dd565b61184681611807565b840191505092915050565b6000602082019050818103600083015261186b8184611818565b905092915050565b6000819050919050565b61188681611873565b811461189157600080fd5b50565b6000813590506118a38161187d565b92915050565b6000602082840312156118bf576118be6116fc565b5b60006118cd84828501611894565b91505092915050565b600073ffffffffffffffffffffffffffffffffffffffff82169050919050565b6000611901826118d6565b9050919050565b611911816118f6565b82525050565b600060208201905061192c6000830184611908565b92915050565b61193b816118f6565b811461194657600080fd5b50565b60008135905061195881611932565b92915050565b60008060408385031215611975576119746116fc565b5b600061198385828601611949565b925050602061199485828601611894565b9150509250929050565b6119a781611873565b82525050565b60006020820190506119c2600083018461199e565b92915050565b6000806000606084860312156119e1576119e06116fc565b5b60006119ef86828701611949565b9350506020611a0086828701611949565b9250506040611a1186828701611894565b9150509250925092565b600060208284031215611a3157611a306116fc565b5b6000611a3f84828501611949565b91505092915050565b611a518161178b565b8114611a5c57600080fd5b50565b600081359050611a6e81611a48565b92915050565b60008060408385031215611a8b57611a8a6116fc565b5b6000611a9985828601611949565b9250506020611aaa85828601611a5f565b9150509250929050565b600080fd5b600080fd5b7f4e487b7100000000000000000000000000000000000000000000000000000000600052604160045260246000fd5b611af682611807565b810181811067ffffffffffffffff82111715611b1557611b14611abe565b5b80604052505050565b6000611b286116f2565b9050611b348282611aed565b919050565b600067ffffffffffffffff821115611b5457611b53611abe565b5b611b5d82611807565b9050602081019050919050565b82818337600083830152505050565b6000611b8c611b8784611b39565b611b1e565b905082815260208101848484011115611ba857611ba7611ab9565b5b611bb3848285611b6a565b509392505050565b600082601f830112611bd057611bcf611ab4565b5b8135611be0848260208601611b79565b91505092915050565b60008060008060808587031215611c0357611c026116fc565b5b6000611c1187828801611949565b9450506020611c2287828801611949565b9350506040611c3387828801611894565b925050606085013567ffffffffffffffff811115611c5457611c53611701565b5b611c6087828801611bbb565b91505092959194509250565b60008060408385031215611c8357611c826116fc565b5b6000611c9185828601611949565b9250506020611ca285828601611949565b9150509250929050565b7f4e487b7100000000000000000000000000000000000000000000000000000000600052602260045260246000fd5b60006002820490506001821680611cf357607f821691505b602082108103611d0657611d05611cac565b5b50919050565b7f4552433732313a20617070726f76616c20746f2063757272656e74206f776e6560008201527f7200000000000000000000000000000000000000000000000000000000000000602082015250565b6000611d686021836117cc565b9150611d7382611d0c565b604082019050919050565b60006020820190508181036000830152611d9781611d5b565b9050919050565b7f4552433732313a20617070726f76652063616c6c6572206973206e6f7420746f60008201527f6b656e206f776e6572206e6f7220617070726f76656420666f7220616c6c0000602082015250565b6000611dfa603e836117cc565b9150611e0582611d9e565b604082019050919050565b60006020820190508181036000830152611e2981611ded565b9050919050565b7f446174612073746f726564207375636365737366756c6c792100000000000000600082015250565b6000611e666019836117cc565b9150611e7182611e30565b602082019050919050565b60006020820190508181036000830152611e9581611e59565b9050919050565b7f4552433732313a2063616c6c6572206973206e6f7420746f6b656e206f776e6560008201527f72206e6f7220617070726f766564000000000000000000000000000000000000602082015250565b6000611ef8602e836117cc565b9150611f0382611e9c565b604082019050919050565b60006020820190508181036000830152611f2781611eeb565b9050919050565b7f4552433732313a20696e76616c696420746f6b656e2049440000000000000000600082015250565b6000611f646018836117cc565b9150611f6f82611f2e565b602082019050919050565b60006020820190508181036000830152611f9381611f57565b9050919050565b7f4552433732313a2061646472657373207a65726f206973206e6f74206120766160008201527f6c6964206f776e65720000000000000000000000000000000000000000000000602082015250565b6000611ff66029836117cc565b915061200182611f9a565b604082019050919050565b6000602082019050818103600083015261202581611fe9565b9050919050565b600081905092915050565b6000612042826117c1565b61204c818561202c565b935061205c8185602086016117dd565b80840191505092915050565b60006120748285612037565b91506120808284612037565b91508190509392505050565b7f4552433732313a206d696e7420746f20746865207a65726f2061646472657373600082015250565b60006120c26020836117cc565b91506120cd8261208c565b602082019050919050565b600060208201905081810360008301526120f1816120b5565b9050919050565b7f4552433732313a20746f6b656e20616c7265616479206d696e74656400000000600082015250565b600061212e601c836117cc565b9150612139826120f8565b602082019050919050565b6000602082019050818103600083015261215d81612121565b9050919050565b7f4e487b7100000000000000000000000000000000000000000000000000000000600052601160045260246000fd5b600061219e82611873565b91506121a983611873565b92508282019050808211156121c1576121c0612164565b5b92915050565b7f4552433732313a207472616e736665722066726f6d20696e636f72726563742060008201527f6f776e6572000000000000000000000000000000000000000000000000000000602082015250565b60006122236025836117cc565b915061222e826121c7565b604082019050919050565b6000602082019050818103600083015261225281612216565b9050919050565b7f4552433732313a207472616e7366657220746f20746865207a65726f2061646460008201527f7265737300000000000000000000000000000000000000000000000000000000602082015250565b60006122b56024836117cc565b91506122c082612259565b604082019050919050565b600060208201905081810360008301526122e4816122a8565b9050919050565b60006122f682611873565b915061230183611873565b925082820390508181111561231957612318612164565b5b92915050565b7f4552433732313a20617070726f766520746f2063616c6c657200000000000000600082015250565b60006123556019836117cc565b91506123608261231f565b602082019050919050565b6000602082019050818103600083015261238481612348565b9050919050565b7f4552433732313a207472616e7366657220746f206e6f6e20455243373231526560008201527f63656976657220696d706c656d656e7465720000000000000000000000000000602082015250565b60006123e76032836117cc565b91506123f28261238b565b604082019050919050565b60006020820190508181036000830152612416816123da565b9050919050565b600081519050919050565b600082825260208201905092915050565b60006124448261241d565b61244e8185612428565b935061245e8185602086016117dd565b61246781611807565b840191505092915050565b60006080820190506124876000830187611908565b6124946020830186611908565b6124a1604083018561199e565b81810360608301526124b38184612439565b905095945050505050565b6000815190506124cd81611732565b92915050565b6000602082840312156124e9576124e86116fc565b5b60006124f7848285016124be565b91505092915050565b600061250b82611873565b91507fffffffffffffffffffffffffffffffffffffffffffffffffffffffffffffffff820361253d5761253c612164565b5b600182019050919050565b7f4e487b7100000000000000000000000000000000000000000000000000000000600052601260045260246000fd5b600061258282611873565b915061258d83611873565b92508261259d5761259c612548565b5b828204905092915050565b60006125b382611873565b91506125be83611873565b9250826125ce576125cd612548565b5b828206905092915050565b7f4e487b7100000000000000000000000000000000000000000000000000000000600052603260045260246000fdfea2646970667358221220b5749f4a2503214672a97be9d8503527f6dcc82b4515987e2195d072183e569d64736f6c63430008110033",
  "linkReferences": {},
  "deployedLinkReferences": {}
}