{
  "_format": "hh-sol-artifact-1",
  "contractName": "MintAccessNft",
  "sourceName": "contracts/MintNFT.sol",
  "abi": [
    {
      "inputs": [],
      "stateMutability": "nonpayable",
      "type": "constructor"
    },
    {
      "anonymous": false,
      "inputs": [
        {
          "indexed": true,
          "internalType": "address",
          "name": "owner",
          "type": "address"
        },
        {
          "indexed": true,
          "internalType": "address",
          "name": "approved",
          "type": "address"
        },
        {
          "indexed": true,
          "internalType": "uint256",
          "name": "tokenId",
          "type": "uint256"
        }
      ],
      "name": "Approval",
      "type": "event"
    },
    {
      "anonymous": false,
      "inputs": [
        {
          "indexed": true,
          "internalType": "address",
          "name": "owner",
          "type": "address"
        },
        {
          "indexed": true,
          "internalType": "address",
          "name": "operator",
          "type": "address"
        },
        {
          "indexed": false,
          "internalType": "bool",
          "name": "approved",
          "type": "bool"
        }
      ],
      "name": "ApprovalForAll",
      "type": "event"
    },
    {
      "anonymous": false,
      "inputs": [
        {
          "indexed": true,
          "internalType": "uint256",
          "name": "NewItemId",
          "type": "uint256"
        }
      ],
      "name": "NFTMinted",
      "type": "event"
    },
    {
      "anonymous": false,
      "inputs": [
        {
          "indexed": true,
          "internalType": "address",
          "name": "from",
          "type": "address"
        },
        {
          "indexed": true,
          "internalType": "address",
          "name": "to",
          "type": "address"
        },
        {
          "indexed": true,
          "internalType": "uint256",
          "name": "tokenId",
          "type": "uint256"
        }
      ],
      "name": "Transfer",
      "type": "event"
    },
    {
      "inputs": [
        {
          "internalType": "address",
          "name": "to",
          "type": "address"
        },
        {
          "internalType": "uint256",
          "name": "tokenId",
          "type": "uint256"
        }
      ],
      "name": "approve",
      "outputs": [],
      "stateMutability": "nonpayable",
      "type": "function"
    },
    {
      "inputs": [
        {
          "internalType": "address",
          "name": "owner",
          "type": "address"
        }
      ],
      "name": "balanceOf",
      "outputs": [
        {
          "internalType": "uint256",
          "name": "",
          "type": "uint256"
        }
      ],
      "stateMutability": "view",
      "type": "function"
    },
    {
      "inputs": [
        {
          "internalType": "uint256",
          "name": "tokenId",
          "type": "uint256"
        }
      ],
      "name": "getApproved",
      "outputs": [
        {
          "internalType": "address",
          "name": "",
          "type": "address"
        }
      ],
      "stateMutability": "view",
      "type": "function"
    },
    {
      "inputs": [],
      "name": "getMyTokens",
      "outputs": [
        {
          "internalType": "uint256",
          "name": "",
          "type": "uint256"
        }
      ],
      "stateMutability": "view",
      "type": "function"
    },
    {
      "inputs": [
        {
          "internalType": "address",
          "name": "owner",
          "type": "address"
        },
        {
          "internalType": "address",
          "name": "operator",
          "type": "address"
        }
      ],
      "name": "isApprovedForAll",
      "outputs": [
        {
          "internalType": "bool",
          "name": "",
          "type": "bool"
        }
      ],
      "stateMutability": "view",
      "type": "function"
    },
    {
      "inputs": [],
      "name": "mintToken",
      "outputs": [],
      "stateMutability": "nonpayable",
      "type": "function"
    },
    {
      "inputs": [],
      "name": "name",
      "outputs": [
        {
          "internalType": "string",
          "name": "",
          "type": "string"
        }
      ],
      "stateMutability": "view",
      "type": "function"
    },
    {
      "inputs": [
        {
          "internalType": "uint256",
          "name": "tokenId",
          "type": "uint256"
        }
      ],
      "name": "ownerOf",
      "outputs": [
        {
          "internalType": "address",
          "name": "",
          "type": "address"
        }
      ],
      "stateMutability": "view",
      "type": "function"
    },
    {
      "inputs": [
        {
          "internalType": "address",
          "name": "from",
          "type": "address"
        },
        {
          "internalType": "address",
          "name": "to",
          "type": "address"
        },
        {
          "internalType": "uint256",
          "name": "tokenId",
          "type": "uint256"
        }
      ],
      "name": "safeTransferFrom",
      "outputs": [],
      "stateMutability": "nonpayable",
      "type": "function"
    },
    {
      "inputs": [
        {
          "internalType": "address",
          "name": "from",
          "type": "address"
        },
        {
          "internalType": "address",
          "name": "to",
          "type": "address"
        },
        {
          "internalType": "uint256",
          "name": "tokenId",
          "type": "uint256"
        },
        {
          "internalType": "bytes",
          "name": "data",
          "type": "bytes"
        }
      ],
      "name": "safeTransferFrom",
      "outputs": [],
      "stateMutability": "nonpayable",
      "type": "function"
    },
    {
      "inputs": [
        {
          "internalType": "address",
          "name": "operator",
          "type": "address"
        },
        {
          "internalType": "bool",
          "name": "approved",
          "type": "bool"
        }
      ],
      "name": "setApprovalForAll",
      "outputs": [],
      "stateMutability": "nonpayable",
      "type": "function"
    },
    {
      "inputs": [
        {
          "internalType": "bytes4",
          "name": "interfaceId",
          "type": "bytes4"
        }
      ],
      "name": "supportsInterface",
      "outputs": [
        {
          "internalType": "bool",
          "name": "",
          "type": "bool"
        }
      ],
      "stateMutability": "view",
      "type": "function"
    },
    {
      "inputs": [],
      "name": "symbol",
      "outputs": [
        {
          "internalType": "string",
          "name": "",
          "type": "string"
        }
      ],
      "stateMutability": "view",
      "type": "function"
    },
    {
      "inputs": [
        {
          "internalType": "address",
          "name": "",
          "type": "address"
        }
      ],
      "name": "tokenAddress",
      "outputs": [
        {
          "internalType": "uint256",
          "name": "",
          "type": "uint256"
        }
      ],
      "stateMutability": "view",
      "type": "function"
    },
    {
      "inputs": [
        {
          "internalType": "uint256",
          "name": "",
          "type": "uint256"
        }
      ],
      "name": "tokenExists",
      "outputs": [
        {
          "internalType": "bool",
          "name": "",
          "type": "bool"
        }
      ],
      "stateMutability": "view",
      "type": "function"
    },
    {
      "inputs": [
        {
          "internalType": "uint256",
          "name": "tokenId",
          "type": "uint256"
        }
      ],
      "name": "tokenURI",
      "outputs": [
        {
          "internalType": "string",
          "name": "",
          "type": "string"
        }
      ],
      "stateMutability": "view",
      "type": "function"
    },
    {
      "inputs": [
        {
          "internalType": "address",
          "name": "from",
          "type": "address"
        },
        {
          "internalType": "address",
          "name": "to",
          "type": "address"
        },
        {
          "internalType": "uint256",
          "name": "tokenId",
          "type": "uint256"
        }
      ],
      "name": "transferFrom",
      "outputs": [],
      "stateMutability": "nonpayable",
      "type": "function"
    }
  ],
  "bytecode": "0x608060405260016007553480156200001657600080fd5b506040518060400160405280600b81526020017f6453746f724163636573730000000000000000000000000000000000000000008152506040518060400160405280600381526020017f4453410000000000000000000000000000000000000000000000000000000000815250816000908162000094919062000329565b508060019081620000a6919062000329565b50505062000410565b600081519050919050565b7f4e487b7100000000000000000000000000000000000000000000000000000000600052604160045260246000fd5b7f4e487b7100000000000000000000000000000000000000000000000000000000600052602260045260246000fd5b600060028204905060018216806200013157607f821691505b602082108103620001475762000146620000e9565b5b50919050565b60008190508160005260206000209050919050565b60006020601f8301049050919050565b600082821b905092915050565b600060088302620001b17fffffffffffffffffffffffffffffffffffffffffffffffffffffffffffffffff8262000172565b620001bd868362000172565b95508019841693508086168417925050509392505050565b6000819050919050565b6000819050919050565b60006200020a62000204620001fe84620001d5565b620001df565b620001d5565b9050919050565b6000819050919050565b6200022683620001e9565b6200023e620002358262000211565b8484546200017f565b825550505050565b600090565b6200025562000246565b620002628184846200021b565b505050565b5b818110156200028a576200027e6000826200024b565b60018101905062000268565b5050565b601f821115620002d957620002a3816200014d565b620002ae8462000162565b81016020851015620002be578190505b620002d6620002cd8562000162565b83018262000267565b50505b505050565b600082821c905092915050565b6000620002fe60001984600802620002de565b1980831691505092915050565b6000620003198383620002eb565b9150826002028217905092915050565b6200033482620000af565b67ffffffffffffffff81111562000350576200034f620000ba565b5b6200035c825462000118565b620003698282856200028e565b600060209050601f831160018114620003a157600084156200038c578287015190505b6200039885826200030b565b86555062000408565b601f198416620003b1866200014d565b60005b82811015620003db57848901518255600182019150602085019450602081019050620003b4565b86831015620003fb5784890151620003f7601f891682620002eb565b8355505b6001600288020188555050505b505050505050565b61283a80620004206000396000f3fe608060405234801561001057600080fd5b506004361061010a5760003560e01c80635b3b136a116100a25780639884e801116100715780639884e801146102b7578063a22cb465146102e7578063b88d4fde14610303578063c87b56dd1461031f578063e985e9c51461034f5761010a565b80635b3b136a1461021b5780636352211e1461023957806370a082311461026957806395d89b41146102995761010a565b8063095ea7b3116100de578063095ea7b3146101bd5780632004ffd9146101d957806323b872dd146101e357806342842e0e146101ff5761010a565b8062923f9e1461010f57806301ffc9a71461013f57806306fdde031461016f578063081812fc1461018d575b600080fd5b61012960048036038101906101249190611938565b61037f565b6040516101369190611980565b60405180910390f35b610159600480360381019061015491906119f3565b61039f565b6040516101669190611980565b60405180910390f35b610177610481565b6040516101849190611ab0565b60405180910390f35b6101a760048036038101906101a29190611938565b610513565b6040516101b49190611b13565b60405180910390f35b6101d760048036038101906101d29190611b5a565b610559565b005b6101e1610670565b005b6101fd60048036038101906101f89190611b9a565b61076d565b005b61021960048036038101906102149190611b9a565b6107cd565b005b6102236107ed565b6040516102309190611bfc565b60405180910390f35b610253600480360381019061024e9190611938565b610834565b6040516102609190611b13565b60405180910390f35b610283600480360381019061027e9190611c17565b6108e5565b6040516102909190611bfc565b60405180910390f35b6102a161099c565b6040516102ae9190611ab0565b60405180910390f35b6102d160048036038101906102cc9190611c17565b610a2e565b6040516102de9190611bfc565b60405180910390f35b61030160048036038101906102fc9190611c70565b610a46565b005b61031d60048036038101906103189190611de5565b610a5c565b005b61033960048036038101906103349190611938565b610abe565b6040516103469190611ab0565b60405180910390f35b61036960048036038101906103649190611e68565b610bd0565b6040516103769190611980565b60405180910390f35b60096020528060005260406000206000915054906101000a900460ff1681565b60007f80ac58cd000000000000000000000000000000000000000000000000000000007bffffffffffffffffffffffffffffffffffffffffffffffffffffffff1916827bffffffffffffffffffffffffffffffffffffffffffffffffffffffff1916148061046a57507f5b5e139f000000000000000000000000000000000000000000000000000000007bffffffffffffffffffffffffffffffffffffffffffffffffffffffff1916827bffffffffffffffffffffffffffffffffffffffffffffffffffffffff1916145b8061047a575061047982610c64565b5b9050919050565b60606000805461049090611ed7565b80601f01602080910402602001604051908101604052809291908181526020018280546104bc90611ed7565b80156105095780601f106104de57610100808354040283529160200191610509565b820191906000526020600020905b8154815290600101906020018083116104ec57829003601f168201915b5050505050905090565b600061051e82610cce565b6004600083815260200190815260200160002060009054906101000a900473ffffffffffffffffffffffffffffffffffffffff169050919050565b600061056482610834565b90508073ffffffffffffffffffffffffffffffffffffffff168373ffffffffffffffffffffffffffffffffffffffff16036105d4576040517f08c379a00000000000000000000000000000000000000000000000000000000081526004016105cb90611f7a565b60405180910390fd5b8073ffffffffffffffffffffffffffffffffffffffff166105f3610d19565b73ffffffffffffffffffffffffffffffffffffffff16148061062257506106218161061c610d19565b610bd0565b5b610661576040517f08c379a00000000000000000000000000000000000000000000000000000000081526004016106589061200c565b60405180910390fd5b61066b8383610d21565b505050565b60096000600754815260200190815260200160002060009054906101000a900460ff16156106d3576040517f08c379a00000000000000000000000000000000000000000000000000000000081526004016106ca90612078565b60405180910390fd5b6106df33600754610dda565b600754600860003373ffffffffffffffffffffffffffffffffffffffff1673ffffffffffffffffffffffffffffffffffffffff16815260200190815260200160002081905550600160096000600754815260200190815260200160002060006101000a81548160ff02191690831515021790555060076000815480929190610766906120c7565b9190505550565b61077e610778610d19565b82610df8565b6107bd576040517f08c379a00000000000000000000000000000000000000000000000000000000081526004016107b490612181565b60405180910390fd5b6107c8838383610e8d565b505050565b6107e883838360405180602001604052806000815250610a5c565b505050565b6000600860003373ffffffffffffffffffffffffffffffffffffffff1673ffffffffffffffffffffffffffffffffffffffff16815260200190815260200160002054905090565b6000806002600084815260200190815260200160002060009054906101000a900473ffffffffffffffffffffffffffffffffffffffff169050600073ffffffffffffffffffffffffffffffffffffffff168173ffffffffffffffffffffffffffffffffffffffff16036108dc576040517f08c379a00000000000000000000000000000000000000000000000000000000081526004016108d3906121ed565b60405180910390fd5b80915050919050565b60008073ffffffffffffffffffffffffffffffffffffffff168273ffffffffffffffffffffffffffffffffffffffff1603610955576040517f08c379a000000000000000000000000000000000000000000000000000000000815260040161094c9061227f565b60405180910390fd5b600360008373ffffffffffffffffffffffffffffffffffffffff1673ffffffffffffffffffffffffffffffffffffffff168152602001908152602001600020549050919050565b6060600180546109ab90611ed7565b80601f01602080910402602001604051908101604052809291908181526020018280546109d790611ed7565b8015610a245780601f106109f957610100808354040283529160200191610a24565b820191906000526020600020905b815481529060010190602001808311610a0757829003601f168201915b5050505050905090565b60086020528060005260406000206000915090505481565b610a58610a51610d19565b83836110f3565b5050565b610a6d610a67610d19565b83610df8565b610aac576040517f08c379a0000000000000000000000000000000000000000000000000000000008152600401610aa390612181565b60405180910390fd5b610ab88484848461125f565b50505050565b6060610ac982610cce565b6000600660008481526020019081526020016000208054610ae990611ed7565b80601f0160208091040260200160405190810160405280929190818152602001828054610b1590611ed7565b8015610b625780601f10610b3757610100808354040283529160200191610b62565b820191906000526020600020905b815481529060010190602001808311610b4557829003601f168201915b505050505090506000610b736112bb565b90506000815103610b88578192505050610bcb565b600082511115610bbd578082604051602001610ba59291906122db565b60405160208183030381529060405292505050610bcb565b610bc6846112d2565b925050505b919050565b6000600560008473ffffffffffffffffffffffffffffffffffffffff1673ffffffffffffffffffffffffffffffffffffffff16815260200190815260200160002060008373ffffffffffffffffffffffffffffffffffffffff1673ffffffffffffffffffffffffffffffffffffffff16815260200190815260200160002060009054906101000a900460ff16905092915050565b60007f01ffc9a7000000000000000000000000000000000000000000000000000000007bffffffffffffffffffffffffffffffffffffffffffffffffffffffff1916827bffffffffffffffffffffffffffffffffffffffffffffffffffffffff1916149050919050565b610cd78161133a565b610d16576040517f08c379a0000000000000000000000000000000000000000000000000000000008152600401610d0d906121ed565b60405180910390fd5b50565b600033905090565b816004600083815260200190815260200160002060006101000a81548173ffffffffffffffffffffffffffffffffffffffff021916908373ffffffffffffffffffffffffffffffffffffffff160217905550808273ffffffffffffffffffffffffffffffffffffffff16610d9483610834565b73ffffffffffffffffffffffffffffffffffffffff167f8c5be1e5ebec7d5bd14f71427d1e84f3dd0314c0f7b2291e5b200ac8c7c3b92560405160405180910390a45050565b610df48282604051806020016040528060008152506113a6565b5050565b600080610e0483610834565b90508073ffffffffffffffffffffffffffffffffffffffff168473ffffffffffffffffffffffffffffffffffffffff161480610e465750610e458185610bd0565b5b80610e8457508373ffffffffffffffffffffffffffffffffffffffff16610e6c84610513565b73ffffffffffffffffffffffffffffffffffffffff16145b91505092915050565b8273ffffffffffffffffffffffffffffffffffffffff16610ead82610834565b73ffffffffffffffffffffffffffffffffffffffff1614610f03576040517f08c379a0000000000000000000000000000000000000000000000000000000008152600401610efa90612371565b60405180910390fd5b600073ffffffffffffffffffffffffffffffffffffffff168273ffffffffffffffffffffffffffffffffffffffff1603610f72576040517f08c379a0000000000000000000000000000000000000000000000000000000008152600401610f6990612403565b60405180910390fd5b610f7d838383611401565b610f88600082610d21565b6001600360008573ffffffffffffffffffffffffffffffffffffffff1673ffffffffffffffffffffffffffffffffffffffff1681526020019081526020016000206000828254610fd89190612423565b925050819055506001600360008473ffffffffffffffffffffffffffffffffffffffff1673ffffffffffffffffffffffffffffffffffffffff168152602001908152602001600020600082825461102f9190612457565b92505081905550816002600083815260200190815260200160002060006101000a81548173ffffffffffffffffffffffffffffffffffffffff021916908373ffffffffffffffffffffffffffffffffffffffff160217905550808273ffffffffffffffffffffffffffffffffffffffff168473ffffffffffffffffffffffffffffffffffffffff167fddf252ad1be2c89b69c2b068fc378daa952ba7f163c4a11628f55a4df523b3ef60405160405180910390a46110ee838383611406565b505050565b8173ffffffffffffffffffffffffffffffffffffffff168373ffffffffffffffffffffffffffffffffffffffff1603611161576040517f08c379a0000000000000000000000000000000000000000000000000000000008152600401611158906124d7565b60405180910390fd5b80600560008573ffffffffffffffffffffffffffffffffffffffff1673ffffffffffffffffffffffffffffffffffffffff16815260200190815260200160002060008473ffffffffffffffffffffffffffffffffffffffff1673ffffffffffffffffffffffffffffffffffffffff16815260200190815260200160002060006101000a81548160ff0219169083151502179055508173ffffffffffffffffffffffffffffffffffffffff168373ffffffffffffffffffffffffffffffffffffffff167f17307eab39ab6107e8899845ad3d59bd9653f200f220920489ca2b5937696c31836040516112529190611980565b60405180910390a3505050565b61126a848484610e8d565b6112768484848461140b565b6112b5576040517f08c379a00000000000000000000000000000000000000000000000000000000081526004016112ac90612569565b60405180910390fd5b50505050565b606060405180602001604052806000815250905090565b60606112dd82610cce565b60006112e76112bb565b905060008151116113075760405180602001604052806000815250611332565b8061131184611592565b6040516020016113229291906122db565b6040516020818303038152906040525b915050919050565b60008073ffffffffffffffffffffffffffffffffffffffff166002600084815260200190815260200160002060009054906101000a900473ffffffffffffffffffffffffffffffffffffffff1673ffffffffffffffffffffffffffffffffffffffff1614159050919050565b6113b083836116f2565b6113bd600084848461140b565b6113fc576040517f08c379a00000000000000000000000000000000000000000000000000000000081526004016113f390612569565b60405180910390fd5b505050565b505050565b505050565b600061142c8473ffffffffffffffffffffffffffffffffffffffff166118cb565b15611585578373ffffffffffffffffffffffffffffffffffffffff1663150b7a02611455610d19565b8786866040518563ffffffff1660e01b815260040161147794939291906125de565b6020604051808303816000875af19250505080156114b357506040513d601f19601f820116820180604052508101906114b0919061263f565b60015b611535573d80600081146114e3576040519150601f19603f3d011682016040523d82523d6000602084013e6114e8565b606091505b50600081510361152d576040517f08c379a000000000000000000000000000000000000000000000000000000000815260040161152490612569565b60405180910390fd5b805181602001fd5b63150b7a0260e01b7bffffffffffffffffffffffffffffffffffffffffffffffffffffffff1916817bffffffffffffffffffffffffffffffffffffffffffffffffffffffff19161491505061158a565b600190505b949350505050565b6060600082036115d9576040518060400160405280600181526020017f300000000000000000000000000000000000000000000000000000000000000081525090506116ed565b600082905060005b6000821461160b5780806115f4906120c7565b915050600a82611604919061269b565b91506115e1565b60008167ffffffffffffffff81111561162757611626611cba565b5b6040519080825280601f01601f1916602001820160405280156116595781602001600182028036833780820191505090505b5090505b600085146116e6576001826116729190612423565b9150600a8561168191906126cc565b603061168d9190612457565b60f81b8183815181106116a3576116a26126fd565b5b60200101907effffffffffffffffffffffffffffffffffffffffffffffffffffffffffffff1916908160001a905350600a856116df919061269b565b945061165d565b8093505050505b919050565b600073ffffffffffffffffffffffffffffffffffffffff168273ffffffffffffffffffffffffffffffffffffffff1603611761576040517f08c379a000000000000000000000000000000000000000000000000000000000815260040161175890612778565b60405180910390fd5b61176a8161133a565b156117aa576040517f08c379a00000000000000000000000000000000000000000000000000000000081526004016117a1906127e4565b60405180910390fd5b6117b660008383611401565b6001600360008473ffffffffffffffffffffffffffffffffffffffff1673ffffffffffffffffffffffffffffffffffffffff16815260200190815260200160002060008282546118069190612457565b92505081905550816002600083815260200190815260200160002060006101000a81548173ffffffffffffffffffffffffffffffffffffffff021916908373ffffffffffffffffffffffffffffffffffffffff160217905550808273ffffffffffffffffffffffffffffffffffffffff16600073ffffffffffffffffffffffffffffffffffffffff167fddf252ad1be2c89b69c2b068fc378daa952ba7f163c4a11628f55a4df523b3ef60405160405180910390a46118c760008383611406565b5050565b6000808273ffffffffffffffffffffffffffffffffffffffff163b119050919050565b6000604051905090565b600080fd5b600080fd5b6000819050919050565b61191581611902565b811461192057600080fd5b50565b6000813590506119328161190c565b92915050565b60006020828403121561194e5761194d6118f8565b5b600061195c84828501611923565b91505092915050565b60008115159050919050565b61197a81611965565b82525050565b60006020820190506119956000830184611971565b92915050565b60007fffffffff0000000000000000000000000000000000000000000000000000000082169050919050565b6119d08161199b565b81146119db57600080fd5b50565b6000813590506119ed816119c7565b92915050565b600060208284031215611a0957611a086118f8565b5b6000611a17848285016119de565b91505092915050565b600081519050919050565b600082825260208201905092915050565b60005b83811015611a5a578082015181840152602081019050611a3f565b60008484015250505050565b6000601f19601f8301169050919050565b6000611a8282611a20565b611a8c8185611a2b565b9350611a9c818560208601611a3c565b611aa581611a66565b840191505092915050565b60006020820190508181036000830152611aca8184611a77565b905092915050565b600073ffffffffffffffffffffffffffffffffffffffff82169050919050565b6000611afd82611ad2565b9050919050565b611b0d81611af2565b82525050565b6000602082019050611b286000830184611b04565b92915050565b611b3781611af2565b8114611b4257600080fd5b50565b600081359050611b5481611b2e565b92915050565b60008060408385031215611b7157611b706118f8565b5b6000611b7f85828601611b45565b9250506020611b9085828601611923565b9150509250929050565b600080600060608486031215611bb357611bb26118f8565b5b6000611bc186828701611b45565b9350506020611bd286828701611b45565b9250506040611be386828701611923565b9150509250925092565b611bf681611902565b82525050565b6000602082019050611c116000830184611bed565b92915050565b600060208284031215611c2d57611c2c6118f8565b5b6000611c3b84828501611b45565b91505092915050565b611c4d81611965565b8114611c5857600080fd5b50565b600081359050611c6a81611c44565b92915050565b60008060408385031215611c8757611c866118f8565b5b6000611c9585828601611b45565b9250506020611ca685828601611c5b565b9150509250929050565b600080fd5b600080fd5b7f4e487b7100000000000000000000000000000000000000000000000000000000600052604160045260246000fd5b611cf282611a66565b810181811067ffffffffffffffff82111715611d1157611d10611cba565b5b80604052505050565b6000611d246118ee565b9050611d308282611ce9565b919050565b600067ffffffffffffffff821115611d5057611d4f611cba565b5b611d5982611a66565b9050602081019050919050565b82818337600083830152505050565b6000611d88611d8384611d35565b611d1a565b905082815260208101848484011115611da457611da3611cb5565b5b611daf848285611d66565b509392505050565b600082601f830112611dcc57611dcb611cb0565b5b8135611ddc848260208601611d75565b91505092915050565b60008060008060808587031215611dff57611dfe6118f8565b5b6000611e0d87828801611b45565b9450506020611e1e87828801611b45565b9350506040611e2f87828801611923565b925050606085013567ffffffffffffffff811115611e5057611e4f6118fd565b5b611e5c87828801611db7565b91505092959194509250565b60008060408385031215611e7f57611e7e6118f8565b5b6000611e8d85828601611b45565b9250506020611e9e85828601611b45565b9150509250929050565b7f4e487b7100000000000000000000000000000000000000000000000000000000600052602260045260246000fd5b60006002820490506001821680611eef57607f821691505b602082108103611f0257611f01611ea8565b5b50919050565b7f4552433732313a20617070726f76616c20746f2063757272656e74206f776e6560008201527f7200000000000000000000000000000000000000000000000000000000000000602082015250565b6000611f64602183611a2b565b9150611f6f82611f08565b604082019050919050565b60006020820190508181036000830152611f9381611f57565b9050919050565b7f4552433732313a20617070726f76652063616c6c6572206973206e6f7420746f60008201527f6b656e206f776e6572206e6f7220617070726f76656420666f7220616c6c0000602082015250565b6000611ff6603e83611a2b565b915061200182611f9a565b604082019050919050565b6000602082019050818103600083015261202581611fe9565b9050919050565b7f746f6b656e20616c726561647920657869737473000000000000000000000000600082015250565b6000612062601483611a2b565b915061206d8261202c565b602082019050919050565b6000602082019050818103600083015261209181612055565b9050919050565b7f4e487b7100000000000000000000000000000000000000000000000000000000600052601160045260246000fd5b60006120d282611902565b91507fffffffffffffffffffffffffffffffffffffffffffffffffffffffffffffffff820361210457612103612098565b5b600182019050919050565b7f4552433732313a2063616c6c6572206973206e6f7420746f6b656e206f776e6560008201527f72206e6f7220617070726f766564000000000000000000000000000000000000602082015250565b600061216b602e83611a2b565b91506121768261210f565b604082019050919050565b6000602082019050818103600083015261219a8161215e565b9050919050565b7f4552433732313a20696e76616c696420746f6b656e2049440000000000000000600082015250565b60006121d7601883611a2b565b91506121e2826121a1565b602082019050919050565b60006020820190508181036000830152612206816121ca565b9050919050565b7f4552433732313a2061646472657373207a65726f206973206e6f74206120766160008201527f6c6964206f776e65720000000000000000000000000000000000000000000000602082015250565b6000612269602983611a2b565b91506122748261220d565b604082019050919050565b600060208201905081810360008301526122988161225c565b9050919050565b600081905092915050565b60006122b582611a20565b6122bf818561229f565b93506122cf818560208601611a3c565b80840191505092915050565b60006122e782856122aa565b91506122f382846122aa565b91508190509392505050565b7f4552433732313a207472616e736665722066726f6d20696e636f72726563742060008201527f6f776e6572000000000000000000000000000000000000000000000000000000602082015250565b600061235b602583611a2b565b9150612366826122ff565b604082019050919050565b6000602082019050818103600083015261238a8161234e565b9050919050565b7f4552433732313a207472616e7366657220746f20746865207a65726f2061646460008201527f7265737300000000000000000000000000000000000000000000000000000000602082015250565b60006123ed602483611a2b565b91506123f882612391565b604082019050919050565b6000602082019050818103600083015261241c816123e0565b9050919050565b600061242e82611902565b915061243983611902565b925082820390508181111561245157612450612098565b5b92915050565b600061246282611902565b915061246d83611902565b925082820190508082111561248557612484612098565b5b92915050565b7f4552433732313a20617070726f766520746f2063616c6c657200000000000000600082015250565b60006124c1601983611a2b565b91506124cc8261248b565b602082019050919050565b600060208201905081810360008301526124f0816124b4565b9050919050565b7f4552433732313a207472616e7366657220746f206e6f6e20455243373231526560008201527f63656976657220696d706c656d656e7465720000000000000000000000000000602082015250565b6000612553603283611a2b565b915061255e826124f7565b604082019050919050565b6000602082019050818103600083015261258281612546565b9050919050565b600081519050919050565b600082825260208201905092915050565b60006125b082612589565b6125ba8185612594565b93506125ca818560208601611a3c565b6125d381611a66565b840191505092915050565b60006080820190506125f36000830187611b04565b6126006020830186611b04565b61260d6040830185611bed565b818103606083015261261f81846125a5565b905095945050505050565b600081519050612639816119c7565b92915050565b600060208284031215612655576126546118f8565b5b60006126638482850161262a565b91505092915050565b7f4e487b7100000000000000000000000000000000000000000000000000000000600052601260045260246000fd5b60006126a682611902565b91506126b183611902565b9250826126c1576126c061266c565b5b828204905092915050565b60006126d782611902565b91506126e283611902565b9250826126f2576126f161266c565b5b828206905092915050565b7f4e487b7100000000000000000000000000000000000000000000000000000000600052603260045260246000fd5b7f4552433732313a206d696e7420746f20746865207a65726f2061646472657373600082015250565b6000612762602083611a2b565b915061276d8261272c565b602082019050919050565b6000602082019050818103600083015261279181612755565b9050919050565b7f4552433732313a20746f6b656e20616c7265616479206d696e74656400000000600082015250565b60006127ce601c83611a2b565b91506127d982612798565b602082019050919050565b600060208201905081810360008301526127fd816127c1565b905091905056fea26469706673582212200a74a76dd27095e15d2cc79a0fc642ef52b68c9039f1285dcfbb12b6ec7db8d264736f6c63430008110033",
  "linkReferences": {},
  "deployedLinkReferences": {}
}